:020000040000FA
:1000000078020010790100008101000083010000E6
:100010008501000087010000890100000000000048
:100020000000000000000000000000008B01000044
:100030008D010000000000008F0100009101000010
:100040009301000093010000930100009301000060
:100050009301000093010000930100009301000050
:100060009301000093010000930100009301000040
:100070009301000093010000930100009301000030
:100080009301000093010000930100009301000020
:10009000930100009301000081050000930100001E
:1000A0009301000093010000930100009301000000
:1000B00093010000A90700009301000093010000D4
:1000C00093010000930100009301000000F002F88A
:1000D00000F042F80AA090E8000C82448344AAF1A0
:1000E0000107DA4501D100F037F8AFF2090EBAE89E
:1000F0000F0013F0010F18BFFB1A43F0010318475C
:10010000A4140000C4140000103A24BF78C878C1B9
:10011000FAD8520724BF30C830C144BF04680C600D
:10012000704700000023002400250026103A28BF55
:1001300078C1FBD8520728BF30C148BF0B60704759
:10014000642900F01181752900F00E8100207047AC
:100150001FB51FBD10B510BD00F0B4F91146FFF773
:10016000F7FF00F0F3FD00F0BBF803B4FFF7F2FF78
:1001700003BC00F0CDF9000009488047094800475A
:10018000FEE7FEE7FEE7FEE7FEE7FEE7FEE7FEE747
:10019000FEE7FEE704480549034A054B70470000A7
:1001A000C1070000CD0000007800001078020010A8
:1001B0007800001053EA020C00F069802DE9F04B42
:1001C0004FF00006002B1FBFB3FA83F503FA05F4C6
:1001D00024FA05F65E4012BF1643B2FA82F502FA1F
:1001E00005F4C5F120051EBF22FA05FC44EA0C0403
:1001F000203556EA044C4FEA144418BF641C4FF0F3
:1002000000084FF00009904271EB030C39D300292C
:1002100019BFB1FA81F701FA07F6B0FA80F700FAD0
:1002200007F6C7F120071EBF20FA07FC46EA0C06B6
:100230002037B6FBF4FCA7EB0507103F07F01F0BB8
:10024000CBF120060CFA0BFB2CFA06F644BFB346A2
:100250000026202FA4BF5E464FF0000B5BEA060C81
:1002600008BF4FF0010B19EB0B09ABFB027C48EB0D
:100270000608C01B06FB02CC0BFB03CC71EB0C0188
:10028000C1E70B46024641464846BDE8F08B13B530
:100290004FF000004FF00001AFF30080BDE81C40BC
:1002A000704700000FB41CB5084B06AA7B44694692
:1002B0000090059800F0F3F804460020694600F02D
:1002C0000AF820461CBC5DF814FB00002700000063
:1002D0007047704770470A6802F8010B0A60704760
:1002E00010B50446AFF300802046BDE81040FFF78C
:1002F0003CBF00000048704718000010FFFFFFFFE0
:100300002DE9F0410E460446002020622046E168B7
:10031000884730B3252805D0D4E901219047206AC9
:10032000401CF2E7E168204600278847050018D006
:10033000A5F14100192802D820354FF40067324654
:10034000294620462760FFF7FBFE40B1012804D074
:10035000F61D26F007060836D8E7361DD6E72846EC
:10036000DAE7206ABDE8F0812DE9F0410646002475
:1003700010687529314616A510D0AFF3008000280B
:1003800002DA404213A507E031688A0701D512A5B9
:1003900002E0490704D511A5012401E0AFF3008074
:1003A00000210A2206F1240709E0B0FBF2FCB0FBB1
:1003B000F2F302FB1C00303078541846491C002828
:1003C000F3D123462A463046BDE8F04100F008B894
:1003D000000000002D0000002B00000020000000A5
:1003E0002DE9F0470D4699469246044600F124084F
:1003F0000168880604D5E06921F01001216000E061
:100400000120A84201DD471B00E00027A1697A19FD
:1004100002EB0900081AA0612078C00602D4204629
:10042000AFF30080002608E0D4E901211AF80600A5
:100430009047206A401C761C20624E45F4DB2078F1
:10044000C0060AD52046AFF3008006E0D4E90121BA
:1004500030209047206A401C2062381EA7F1010717
:10046000F4DC07E0D4E9012118F805009047206A80
:10047000401C2062281EA5F10105F3DC2046AFF3E5
:1004800000802078000602D50220BDE8F087012018
:10049000FBE7000001694A1C02610878704700B55B
:1004A0008FB0CDE901310021059105497944CDE9AD
:1004B000031011466846FFF723FF0FB000BD000090
:1004C000E5FFFFFF7546FFF715FFAE4605006946DD
:1004D000534620F00700854618B020B5FFF75AFEB6
:1004E000BDE820404FF000064FF000074FF0000835
:1004F0004FF0000B21F00701AC46ACE8C009ACE8B6
:10050000C009ACE8C009ACE8C0098D4670470000DE
:1005100001491820ABBEFEE726000200704710B567
:10052000012A05D1036801248C40234303600CE0B9
:10053000036803F0E0631BB1036823F0E06303602A
:10054000046801238B409C43046010BD024602F105
:10055000100050F82130C3F30B10704710B503465C
:100560000C4603F1100050F8241012B101F00041C4
:1005700001E001F0804109B1012010BD0020FCE73D
:1005800070B5012211462448FFF7E8FF002841D149
:1005900001212148FFF7DAFF20490860084600687A
:1005A00000F020FF05461E4900F030FF04464FF0E2
:1005B0008B4100F035FE1B4908601B491948006853
:1005C00000F024FF044600F0EDFE184908801848AA
:1005D0000068098808441649086016480078401CDD
:1005E000144908700846007814280FD101201249D8
:1005F00008700F4800680F490978B0FBF1F00F4907
:10060000088000200A4908600A4908700121024850
:1006100000F040F870BD00000040034000000010F2
:10062000CDCC4C40080000100000C8421000001063
:10063000040000100C0000100D0000100E0000104F
:100640002DE9F04104460E460121080300F02CF884
:10065000002020604FF40017182000F041F8804679
:1006600006EB861505EB48006900B0FBF1F0451E6E
:1006700047EA05272760BDE8F08110B5C36801246B
:100680008C40A343C36022B1C46801238B401C4348
:10069000C46010BD026822F0E0620260026842EAB3
:1006A0000162026070470000012909D10A4A1268FC
:1006B0000A4B03401A43084BC43BC3F8C42009E06B
:1006C00041B9054A1268054B83431A40024BC43BAB
:1006D000C3F8C42070470000C4C00F40DEF7EFEF3E
:1006E00070B506460D480468304600F019F8054616
:1006F00035B1012D06D0022D06D0032D08D105E01D
:10070000042505E0012503E0022501E0082500BFDE
:1007100000BFB4FBF5F4204670BD000014000010CB
:100720000146202903D20A46064B186804E0A1F1CD
:100730002002044B1B1D186820FA02F303F003008B
:1007400070470000A8C10F40002107E0002201E02F
:10075000531CDAB28242FBDB4A1C91B24FF6FF72A5
:100760009142F3DB704710B50446A2786178207897
:1007700000F026FCE2786178207800F041FC2279D4
:100780006178207800F004FC10BD0146087A00F082
:10079000010008B1012201E000207047087A40F012
:1007A000010008721046F8E710B50348FFF7EDFFA7
:1007B00001200249087010BD00000B40120000101B
:1007C00020204B4908604B48D0F8A00100F02000E1
:1007D00030B100BF4648006800F040000028F9D062
:1007E000032043499C39086000204249C1F8A80110
:1007F0003F490C31086001203D49943908603E486A
:100800003C4984310860AA203A498C31086055205F
:1008100008600120374980310860AA2035498C31B1
:10082000086055203349C1F88C0000BF314888303A
:10083000006800F080600028F8D003202D49803146
:100840000860AA202B49C1F88C00552029498C3119
:10085000086000BF27488830006800F04070B0F1A1
:10086000407FF7D123202349A4310860AA202149E1
:10087000C1F8AC0055201F49AC31086001201D496A
:10088000A0310860AA201B49AC31086055201949E5
:10089000C1F8AC0000BF1748A830006800F48060C1
:1008A0000028F8D003201349A0310860AA2011497C
:1008B000C1F8AC0055200F49AC31086000BF0D48AD
:1008C000A830006800F44070B0F5407FF7D10B48C5
:1008D0000849C431086000200649C1F8C80108462B
:1008E000006820F4704040F48040086070470000C9
:1008F000A0C10F4000C00F4063000500DE87280440
:1009000070B504460E465A48844203D1012108209E
:10091000FFF7CAFE5748844203D101211020FFF798
:10092000C3FE5548844203D101210806FFF7BCFEEF
:100930005248844203D101214806FFF7B5FE4D48D5
:10094000844223D1072020720020207200E0257805
:10095000207D00F001000028F9D1802084F83000CB
:1009600000BF207D00F020000028FAD0002084F88D
:100970003000606020732062207484F84C0084F89A
:10098000540084F85000257E257D1AE0072020724F
:100990000020207200E02578207D00F00100002872
:1009A000F9D1802084F8300000BF207D00F02000C5
:1009B0000028FAD0002084F83000606020732062A4
:1009C000257D2E48844202D1002084F82400204650
:1009D000316800F035FB2748844203D1207B00F0CA
:1009E000C00502E0207B00F0C005707930B101281D
:1009F00006D0022807D0032808D108E000BF09E08C
:100A000045F0010506E045F0020503E000BF45F0B2
:100A1000030500BF00BF3079C0B145F0080530794B
:100A2000012806D0022806D0032807D004280BD1BD
:100A300007E000BF09E045F0100506E045F020059D
:100A400003E045F0300500E000BF00BFB07928B1F9
:100A5000012802D145F0040501E000BF00BF00BF3E
:100A60000448844201D1257300E0257370BD000065
:100A700000C00040000001400080094000C0094063
:100A80002DE9F04F0746894692469B464E4653460F
:100A9000BBF1010F24D100241FE04FF0FF3805E027
:100AA000B8F1000F00D106E0A8F10108387D00F090
:100AB00020000028F4D000BFB8F1000F00D10EE0F4
:100AC000102507E016F8011B384600F023F86D1ECC
:100AD0005B1E641C0DB1002BF4D1002BDDD116E0A0
:100AE000002411E0387D00F0200000B90EE0102550
:100AF00007E016F8011B384600F00CF85B1E6D1E6F
:100B0000641C0DB1002BF4D1002BEBD100BF2046AB
:100B1000BDE8F08F034A904201D1017000E00170FE
:100B20007047000000000140012910D10F4A904297
:100B300006D190F8302042F0800280F8302014E096
:100B400090F8302042F0800280F830200DE0074A13
:100B5000904205D190F83020002280F8302004E047
:100B600090F83020002280F83020704700000140CB
:100B700001B502E00098401E009000980028F9D1CD
:100B800008BD000000B5012000F00EF840F2DC5076
:100B9000FFF7EEFF022000F007F80248FFF7E8FF3A
:100BA00000BD000040420F0010B50446012011496D
:100BB000C865204600F0CEF904200E4988659620CD
:100BC000FFF7D6FF04200B49C8659620FFF7D0FF3A
:100BD0002107080E00F0BEF904200649886596201A
:100BE000FFF7C6FF04200349C86540F2DC50FFF759
:100BF000BFFF10BD00C0092070B506460C46601E40
:100C0000C4B2012E06D0022E06D0032E08D0042E28
:100C10000ED109E0E5B20DE004F14000C5B209E0F3
:100C200004F11400C5B205E004F15400C5B201E0BE
:100C3000E5B200BF00BF45F08000FFF7B5FF40F20E
:100C4000DC50FFF795FF70BD00B5F720224908641E
:100C50000220C86540F2DC50FFF78AFF002000F058
:100C600079F9302000F076F904201B498865962038
:100C7000FFF77EFF04201849C86540F2DC50FFF7FB
:100C800077FF302000F066F904201349886596202C
:100C9000FFF76EFF04201049C86540F2DC50FFF7F3
:100CA00067FF202000F056F904200B498865962044
:100CB000FFF75EFF04200849C86540F2DC50FFF7EB
:100CC00057FF2820FFF770FF0C20FFF76DFF40F261
:100CD000DC50FFF74DFF00BD00C0092010B50446F1
:100CE000012011498865204600F034F904200E499E
:100CF00088659620FFF73CFF04200B49C8659620C5
:100D0000FFF736FF2107080E00F024F904200649FA
:100D100088659620FFF72CFF04200349C86540F240
:100D2000DC50FFF725FF10BD00C0092030B5054697
:100D30002C4604B930BD03E02078FFF7CFFF641CD8
:100D400020780028F8D100BFF4E700008EB000241E
:100D500000BFFFF779FFFFF715FF01208DF81600A0
:100D600000208DF8180002208DF8170018208DF84B
:100D7000150000208DF8140005A8FFF7F4FC0720EB
:100D80000246654B19684FF6FF031940634B0B434E
:100D900043EA0221604B196000BF61496148FFF7D7
:100DA0004FFC012211465F48FFF767FC0122114604
:100DB0005C48FFF7B4FB16200722002501261346E6
:100DC000C3F10708B8F1050F02D94FF0050801E09B
:100DD000C3F10708C44603F10508B8F1070F02D2B2
:100DE0004FF0000801E0A3F1020847464FF0010868
:100DF00008FA0CF8A8F1010808EA050808FA07F84B
:100E00004FF0010909FA07F9A9F1010909EA0609F0
:100E100048EA090100BF002804DBCA06130E424A53
:100E2000135407E0CA06150E3B4A0C3200F00F03BC
:100E30001B1FD55400BF1620002809DB00F01F023D
:100E4000012191404209920002F1E022C2F8001112
:100E500000BF01208DF80E0002208DF81000002048
:100E60008DF80F000A208DF80D0000208DF80C0081
:100E700003A8FFF778FC0B208DF80D0000208DF8FB
:100E80000C0003A8FFF76FFC4FF4E1300190032042
:100E90008DF8090000208DF808008DF80A0001A9DE
:100EA0002248FFF72DFD01212048FFF73DFE0421D8
:100EB0000120FFF7A1FE1EA0FFF738FF012119480E
:100EC000FFF7E8FB27E00A20FFF73EFC1B4800780D
:100ED000012804D100201949087019480478072115
:100EE0000220FFF789FE224616A10CA8FFF7DAF9C7
:100EF0000CA8FFF71BFF224614A107A8FFF7D2F9A1
:100F0000C5B201232A4607A90848FFF7B9FD6420A6
:100F1000FFF71AFC00BFD6E70CED00E00000FA0571
:100F2000400D03000040034000E400E00080094061
:100F300054656D7065726174756572000D00001006
:100F40000E000010543D256400000000543D25753E
:100F50000A000000F0210D4AD16500F0800109B1BE
:100F60008021916500F0400111B14021074A91654F
:100F700000F0200111B12021044A916500F0100118
:100F800011B11021014A91657047000000C009208D
:100F900030B50B460949012A07D151F820400125F7
:100FA0009D402C4341F8204006E051F820400125A7
:100FB0009D40AC4341F8204030BD000068C0024075
:100FC000F0B504460B461546194660000B4A102939
:100FD00001D31039401C52F820604FEA410C03271E
:100FE00007FA0CF7BE4342F8206052F820604F0029
:100FF00005FA07F73E4342F82060F0BD00C002400A
:10100000F0B504460B461546194660000B4A1029F8
:1010100001D31039401C52F820604FEA410C0327DD
:1010200007FA0CF7BE4342F8206052F820604F00E8
:1010300005FA07F73E4342F82060F0BD40C0024089
:101040002DE9F04F8BB00446894600200990704886
:10105000844204D10620FFF743FB074616E06D48A3
:10106000844204D10820FFF73BFB07460EE06A48A4
:10107000844204D13020FFF733FB074606E067487F
:10108000844203D13220FFF72BFB07464FF0FF3B92
:1010900000200790069000252E464FF001084DE0F5
:1010A0000020089040E00898404400FB09FC002024
:1010B000010741EA171138070022A0FB083E01FB97
:1010C00008E100FB02106246CDE900300023DDE9B3
:1010D0000001FFF76FF8CDE9040104980390DDF8F3
:1010E00014A00398B0F1004F04D903984042039034
:1010F0000AF1010ABAF1000F02D0BAF5803F00D917
:101100000FE0039858450BD2DDF80CB00026554689
:1011100008980790CDF81880BBF1000F00D106E0C9
:1011200000BF0898401C089008984045BBD300BFFA
:10113000BBF1000F00D104E008F10108B8F10F0F76
:10114000AED900BF002185EA01007140084302D1F9
:101150000BB0BDE8F08F3809069900FB01FC08468A
:10116000079908440021A0FB052301FB053100FB82
:1011700006100346CDE9002060460021FFF71AF86B
:1011800002900298814503D90298A9EB000B02E076
:101190000298A0EB090B64200BFB00F0B0FBF9FBFD
:1011A000BBF1030F32D21B48844216D1207B40F0A2
:1011B00080002073280A40EA066020712570207B99
:1011C00000F07F002073F021069801EA00100799D3
:1011D00001F00F010843A06216E0207B40F0800080
:1011E0002073280A40EA066020712570207B00F0F9
:1011F0007F002073F021069801EA0010079901F0A2
:101200000F01084384F828000120099009989FE7FE
:1012100000C00040000001400080094000C00940BB
:101220004FF47F0C1CEAD0121EBF1CEAD11392EAC5
:101230000C0F93EA0C0F00F0858090EA010F48BF75
:1012400042F4807240F4000C41F400002CF07F4125
:1012500020F07F4000B58142A2EB03020FF2081C90
:10126000ACEB504EC0F100009EF800E04FEA4E0E8D
:1012700000FB0EFC38BF49004FEA2C1C02F5FA02B5
:101280000CFB0EF34FEACE1E4FEA112C4FEAC121A0
:101290000EEB635E42EB22420EFB0CFC4FEA1C534A
:1012A00000FB03114FEA112C4FEA01310EFB0CFC3D
:1012B0004FEADC4C00FB0C11C14228BF09184CEB73
:1012C00003335DF804EB10EB410143EBC250B2F580
:1012D0007C0F38BF704729D512F0F00F1CBF00F10A
:1012E000C04000F00040704700818283848586877B
:1012F00088898B8C8D8E8F919293959697999A9CD5
:101300009D9FA0A2A3A5A7A8AAACAEB0B2B3B5B743
:10131000B9BCBEC0C2C5C7C9CCCED1D4D7D9DCDF19
:10132000E2E6E9ECF0F3F7FAFE0000004FEA400CC9
:101330000CF1807CBCF17E4F28BF7047B0F1C040FB
:1013400000F02BB990EA010F0CEAD11348BF42F428
:101350008072624538BF634507D213F47F0F16D001
:1013600080EA010000F00040704710B500F0CFF8AF
:10137000097EFC3E00F005B880EA010000F0004064
:10138000704780EA010000F0004000F006B912F456
:101390007F0F04BF0248704780EA010000F0FDB8EB
:1013A0000000C07FC10DD1F19E0206DB4FEA002391
:1013B00043F0004323FA02F07047004207D54FEA9A
:1013C0004001B1F1FE4F02D24FF00000704710B55E
:1013D00000F09DF849922480002070476FEA2000B9
:1013E00070470000B0FA80F310FA03F2C3F19D03D6
:1013F0000AD0D90501EB1220530638BF704700F11F
:10140000010008BF20F00100704700004FF47F0C7E
:101410001CEAD0121EBF1CEAD11392EA0C0F93EA09
:101420000C0F00F0478090EA010F48BF42F4807231
:101430004FF0004C4CEA00204CEA012102EB030281
:10144000A0FB0113A2F50002002918BF43F001031D
:101450005B0028BF4FEA330342EB22425FEA132CC2
:101460004CEBC2502EBFBCEB436FB2F57C0F704704
:101470004FEA036CBCF1004F08BF20F00100B2F549
:101480007C0F38BF70470BD582F0FF0212F5803F0A
:10149000C8BF704700F1C040D8BF00F0004070479F
:1014A00000F5000C5FEA4C0C48BF7047B0F1C0403B
:1014B00000F073B890EA010F0CEAD11348BF42F470
:1014C0008072624538BF634504D280EA010000F0B3
:1014D0000040704710B500F01AF800BF8900013EC7
:1014E00000F007B800F009B85FEA410C5FEA1C6C35
:1014F00008D080EA010000F050B85FEA400C5FEAD3
:101500001C6CF6D14FF00040A0F5800070470EF142
:10151000020E2EF0030E5EF8044B244204D44FEA70
:101520004102B2F17F4F11D84FEA4003B3F17F4F30
:101530000CD80ED14FEAD07CB2F17F4F0CEB4C0CA3
:101540000CF1020C08BF4CEBD17C04E04FF0080C0E
:1015500001E04FEAD17C0CEB4C0324FA03F404F0D5
:101560000704B4F1040C06D20EEB840CBDE8104065
:101570004CF0010C6047DFE80CF0070802024FF066
:101580000040A0F5800010BD0846420018BFD2F10F
:10159000807288BF00F0004010BDFF2141EAD050AA
:1015A000C0057047C41500000000001018000000BE
:1015B00008010000DC1500001800001060020000A7
:1015C00024010000000000000000000000000000F6
:0C15D000000000000000000000E1F50534
:04000005000001797D
:00000001FF
